{
  "contractName": "Adoption",
  "abi": [
    {
      "inputs": [],
      "payable": false,
      "stateMutability": "nonpayable",
      "type": "constructor"
    },
    {
      "constant": true,
      "inputs": [
        {
          "internalType": "uint256",
          "name": "",
          "type": "uint256"
        }
      ],
      "name": "adopters",
      "outputs": [
        {
          "internalType": "address",
          "name": "",
          "type": "address"
        }
      ],
      "payable": false,
      "stateMutability": "view",
      "type": "function"
    },
    {
      "constant": true,
      "inputs": [],
      "name": "owner",
      "outputs": [
        {
          "internalType": "address",
          "name": "",
          "type": "address"
        }
      ],
      "payable": false,
      "stateMutability": "view",
      "type": "function"
    },
    {
      "constant": true,
      "inputs": [],
      "name": "totalBalance",
      "outputs": [
        {
          "internalType": "uint256",
          "name": "",
          "type": "uint256"
        }
      ],
      "payable": false,
      "stateMutability": "view",
      "type": "function"
    },
    {
      "constant": true,
      "inputs": [],
      "name": "getOwner",
      "outputs": [
        {
          "internalType": "address",
          "name": "",
          "type": "address"
        }
      ],
      "payable": false,
      "stateMutability": "view",
      "type": "function"
    },
    {
      "constant": false,
      "inputs": [
        {
          "internalType": "uint256",
          "name": "petId",
          "type": "uint256"
        }
      ],
      "name": "adopt",
      "outputs": [
        {
          "internalType": "uint256",
          "name": "",
          "type": "uint256"
        }
      ],
      "payable": true,
      "stateMutability": "payable",
      "type": "function"
    },
    {
      "constant": true,
      "inputs": [],
      "name": "getAdopters",
      "outputs": [
        {
          "internalType": "address[16]",
          "name": "",
          "type": "address[16]"
        }
      ],
      "payable": false,
      "stateMutability": "view",
      "type": "function"
    }
  ],
  "bytecode": "0x608060405234801561001057600080fd5b5030601160006101000a81548173ffffffffffffffffffffffffffffffffffffffff021916908373ffffffffffffffffffffffffffffffffffffffff16021790555061044a806100616000396000f3fe6080604052600436106100555760003560e01c80633de4eb171461005a57806343ae80d3146100ad5780638588b2c514610128578063893d20e81461016a5780638da5cb5b146101c1578063ad7a672f14610218575b600080fd5b34801561006657600080fd5b5061006f610243565b6040518082601060200280838360005b8381101561009a57808201518184015260208101905061007f565b5050505090500191505060405180910390f35b3480156100b957600080fd5b506100e6600480360360208110156100d057600080fd5b81019080803590602001909291905050506102c4565b604051808273ffffffffffffffffffffffffffffffffffffffff1673ffffffffffffffffffffffffffffffffffffffff16815260200191505060405180910390f35b6101546004803603602081101561013e57600080fd5b81019080803590602001909291905050506102f7565b6040518082815260200191505060405180910390f35b34801561017657600080fd5b5061017f61039c565b604051808273ffffffffffffffffffffffffffffffffffffffff1673ffffffffffffffffffffffffffffffffffffffff16815260200191505060405180910390f35b3480156101cd57600080fd5b506101d66103c6565b604051808273ffffffffffffffffffffffffffffffffffffffff1673ffffffffffffffffffffffffffffffffffffffff16815260200191505060405180910390f35b34801561022457600080fd5b5061022d6103ec565b6040518082815260200191505060405180910390f35b61024b6103f2565b60006010806020026040519081016040528092919082601080156102ba576020028201915b8160009054906101000a900473ffffffffffffffffffffffffffffffffffffffff1673ffffffffffffffffffffffffffffffffffffffff1681526020019060010190808311610270575b5050505050905090565b600081601081106102d157fe5b016000915054906101000a900473ffffffffffffffffffffffffffffffffffffffff1681565b600080821015801561030a5750600f8211155b61031357600080fd5b343373ffffffffffffffffffffffffffffffffffffffff1631101561033757600080fd5b34601060008282540192505081905550336000836010811061035557fe5b0160006101000a81548173ffffffffffffffffffffffffffffffffffffffff021916908373ffffffffffffffffffffffffffffffffffffffff160217905550819050919050565b6000601160009054906101000a900473ffffffffffffffffffffffffffffffffffffffff16905090565b601160009054906101000a900473ffffffffffffffffffffffffffffffffffffffff1681565b60105481565b60405180610200016040528060109060208202803883398082019150509050509056fea265627a7a72315820729d84eb08dcf1b5e41c71017cf7969f14d1b7d99cf7f07aa7a1019ffd7ddd5764736f6c63430005100032",
  "source": "pragma solidity ^0.5.0;\r\n\r\ncontract Adoption {\r\n  address[16] public adopters;\r\n  uint public totalBalance;\r\n\r\n  // Owner\r\n  address public owner;\r\n  constructor () public {\r\n    owner = address(this);\r\n  }\r\n\r\n  function getOwner() public view returns (address) {\r\n    return owner;\r\n  }\r\n\r\n  // Adopting a pet\r\n  function adopt(uint petId) public payable returns (uint) {\r\n    require(petId >= 0 && petId <= 15);\r\n    require(msg.sender.balance >= msg.value);\r\n\r\n    totalBalance += msg.value;\r\n\r\n    adopters[petId] = msg.sender;\r\n\r\n    return petId;\r\n  }\r\n\r\n  function getAdopters() public view returns (address[16] memory) {\r\n    return adopters;\r\n  }\r\n}",
  "sourcePath": "D:\\my_document\\KMUTT\\CPE\\Year03\\semester_2\\CPE494\\pet-shop-tutorial\\contracts\\Adoption.sol",
  "compiler": {
    "name": "solc",
    "version": "0.5.16+commit.9c3226ce.Emscripten.clang"
  },
  "schemaVersion": "3.4.6",
  "updatedAt": "2022-04-28T05:30:56.478Z",
  "networkType": "ethereum",
  "devdoc": {
    "methods": {}
  },
  "userdoc": {
    "methods": {}
  }
}